S01400004C696E65626F7446696E616C2E7372656359
S11300000C9409020C942A020C94A1040C94280563
S11300100C942A020C942A020C942A020C942A02AC
S11300200C942A020C942A020C942A020C942A029C
S11300300C942A020C942A020C94CA170C942A02D7
S11300400C943E180C942A020C942A020C942A0252
S11300500C942A020C942A020C942A020C942A026C
S11300600C942A020C942A020C942A020C942A025C
S11300700C942A020C942A020C942A020C942A024C
S11300800C942A020C942A020C94C0020C942A02A6
S11300900C942A020C942A020C942A020C942A022C
S11300A00C942A020C942A020C942A020C94AF0594
S11300B00C9436060C942A020C94E50A0C942A0239
S11300C00C942A020C942A020C942A020C942A02FC
S11300D00C942A020C942A020C942A020C942A02EC
S11300E00C942A020C942A020C94050C0C942A02F7
S11300F00C94BE0B0C942A020C942A020C942A022F
S11301000C942A020C942A020C942A020C942A02BB
S11301100C942A020C942A020C942A020C94530282
S11301200C942A020C942A020C942A020C942A029B
S11301300C942A020C942A020C942A020C942A028B
S11301400C942A020C942A020C942A020C942A027B
S11301500C942A020C942A020C942A020C942A026B
S11301600C942A020C942A020C942A020C942A025B
S11301700C942A020C942A020C942A020C942A024B
S11301800C942A020C942A020C942A020C942A023B
S11301900C942A020C942A020C942A020C942A022B
S11301A00C942A020C942A020C942A020C942A021B
S11301B00C942A020C942A020C942A020C942A020B
S11301C00C942A020C942A020C942A020C942A02FB
S11301D00C942A020C942A020C942A020C942A02EB
S11301E00C942A020C942A020C942A020C942A02DB
S11301F00C942A020C942A020C942A020C94B4291A
S11302000C944F0B0C94ED2C0C94650B0C94722BEA
S11302100C94132C0C94AE2C0C9415270C945E1E89
S11302206E616E00696E660000407A10F35A00A099
S1130230724E18090010A5D4E80000E876481700AB
S113024000E40B54020000CA9A3B000000E1F505EB
S1130250000080969800000040420F000000A08635
S113026001000000102700000000E8030000000067
S11302706400000000000A0000000000010000000B
S113028000002C76D888DC674F0823DFC1DFAE5925
S1130290E1B1B796E5E3E453C63AE651997696E8B8
S11302A0E6C28426EB898C9B62ED407C6FFCEFBC3C
S11302B09C9F40F2BAA56FA5F490055A2AF75C9367
S11302C06B6CF9676DC11BFCE0E40D47FEF520E69D
S11302D0B500D0ED902E0300943577050080841E80
S11302E0080000204E0A000000C80C333333330FDB
S11302F0986E12831141EF8D2114893BE65516CF78
S1130300FEE6DB18D1844B381BF77C1D901DA4BB83
S1130310E424203284725E228100C9F124ECA1E538
S11303203D274E414E494E495459494E46CDCCCCB9
S11303303D0AD7233C17B7D13877CC2B329595E6B5
S1130340241FB14F0A000020410000C84200401C95
S11303504620BCBE4CCA1B0E5AAEC59D74726F7447
S113036063747220616E676C6520737065656420C8
S11303703A726F746174652027616E676C6527201B
S1130380646567726565732061726F756E6420635E
S1130390656E746572206F6620726F626F7420617F
S11303A0742061207370656564206F662027737004
S11303B065656427206D6D2F730D0A006472767372
S11303C074722064697374616E636520737065650B
S11303D064203A447269766520737472616967684F
S11303E074206F766572202764697374616E636527
S11303F027206D6D20617420612073706565642011
S11304006F662027737065656427206D6D2F730DEB
S11304100A0011241FBECFEFCDBFDFE9DEBF00E02D
S11304200CBF11E2A0E0B0E2E4EBF2E700E00BBFA6
S113043002C007900D92AC39B107D9F726E2ACE9B6
S1130440B1E201C01D92AF3FB207E1F70E94B626A8
S11304500C9458390C940000E0E0F2E081E08083D1
S113046096E0918392E0928393E0948382A343E0A5
S113047060E00E94AF198093D9269093DA2643E076
S113048060E081E00E94AF198093D7269093D8262C
S113049020E040E050E060E070E08091D926909147
S11304A0DA260C94F3191F920F920FB60F921124AF
S11304B00BB60F922F933F934F935F936F937F935A
S11304C08F939F93AF93BF93EF93FF93CF93DF9358
S11304D01F92CDB7DEB71982BE016F5F7F4F809147
S11304E0D7269091D8260E94371B898181110E94BA
S11304F0A6170F90DF91CF91FF91EF91BF91AF912C
S11305009F918F917F916F915F914F913F912F9127
S11305100F900BBE0F900FBE0F901F901895E0E246
S1130520F6E098EF928389E5838B848B858B868BA9
S1130530878B928783E0818740E061E08AE00E94B4
S1130540AF198093A2219093A32108958091280646
S113055083FF12C080E19091280694FD88609091F9
S1130560280695FD84609091280696FD82609091FE
S1130570280697FD03C0089580E0EDCF81600895BB
S11305801F920F920FB60F9211240BB60F92CF92B7
S1130590DF92EF92FF920F931F932F933F934F930A
S11305A05F936F937F938F939F93AF93BF93EF93D7
S11305B0FF93CF93DF931F921F92CDB7DEB7809145
S11305C048008E7F809348008091A20087608093CA
S11305D0A20019828091200890912108C090E926F8
S11305E0D090EA26E090EB26F090EC26C80ED91EB7
S11305F0E11CF11C0E94A6028A8340919E21509125
S11306009F216091A0217091A12197018601041B73
S1130610150B260B370BB901A8014130584A614626
S1130620710510F0811129C081E090E00E949C09BD
S113063086E190E20E940C37898181110E94A617FD
S11306400F900F90DF91CF91FF91EF91BF91AF91F8
S11306509F918F917F916F915F914F913F912F91D6
S11306601F910F91FF90EF90DF90CF900F900BBEF2
S11306700F900FBE0F901F90189520E0AE014F5FB2
S11306805F4FBE016E5F7F4F8091A2219091A321A5
S11306900E94DC1AC0929E21D0929F21E092A02158
S11306A0F092A121C1CFDC011092A7211092A821C0
S11306B09C919923B1F0FD01319680E49093A00AB6
S11306C09091A10A96FFFCCF8093A10A9F012A1B57
S11306D03B0B91919111F2CF2093A7213093A82144
S11306E008950895FC011092A7211092A8219081E9
S11306F09923E1F0319620E030E080E426173707B3
S11307001CF06115710569F49093A00A9091A10AF7
S113071096FFFCCF8093A10A2F5F3F4F91919111D7
S1130720EDCF2093A7213093A82108950895CF9267
S1130730DF92EF92FF920F931F93CF93DF937C018D
S113074080E197E28093A5219093A6211092A421A1
S1130750C5E0D0E0C12CE0E1F7E2A0E4DA2E0AE043
S113076010E0C701BF010E948733AB019B01ADECD0
S1130770BCEC0E94D133969587959695879596956E
S113078087959C01220F331F880F991F880F991F8B
S1130790880F991F820F931F9A01281B390BC901D7
S11307A0009711F4CC2059F0805D8093A00A8091C9
S11307B0A10A86FFFCCFD092A10ACC24C394CF0116
S11307C0B8010E949B33FB01219759F6C092A421E2
S11307D06093A5217093A621DF91CF911F910F9172
S11307E0FF90EF90DF90CF900895E0EAF6E08FE17C
S11307F0818380E4848B20E12583E0E0FBE091E0C9
S1130800908393EF918340E050E146A357A3E0E443
S1130810F6E090EC9283868B878B828790E89387AF
S113082095E09187E0E8F6E030E33283848B858BB2
S1130830228780E28387918740E065E084E10E941B
S1130840AF198093DF269093E026089520E1009766
S113085069F56115710509F457C02093A606813026
S113086020EF92070CF457C09195819591098093DC
S1130870280B9093290B10922A0B10922B0B719535
S1130880619571091616170644F1613020EF72075D
S11308900CF444C071956195710960932C0B7093AD
S11308A02D0B10922E0B10922F0B08952093A60659
S11308B018161906A4F61092280B1092290B81150C
S11308C020E19207F4F480932A0B90932B0B7195FB
S11308D06195710916161706C4F610922C0B109226
S11308E02D0B611580E178072CF460932E0B709327
S11308F02F0B08956FEF7FE060932E0B70932F0BF7
S113090008958FEF9FE0DFCF2093A506813020EF7D
S113091092070CF0A9CF81E090EFA6CF61E070EFD1
S1130920B9CF0FB6F8940F924091DB265091DC2694
S11309302091DD263091DE260F900FBEBA01C90149
S113094008951F920F920FB60F9211240BB60F92B7
S11309501F932F933F934F935F936F937F938F9343
S11309609F93AF93BF93EF93FF93CF93DF9300D005
S113097000D0CDB7DEB71E82209120083091210827
S11309808091E9269091EA26A091EB26B091EC267D
S1130990820F931FA11DB11D89839A83AB83BC83EE
S11309A080914806182F107886FF37C081E08D8328
S11309B020E0AE014A5F5F4FBE016F5F7F4F8091C1
S11309C0DF269091E0260E94DC1A1123B9F1809170
S11309D0DB269091DC2601968093DB269093DC261F
S11309E08E8181110E94A6172696CDBFDEBFDF91AE
S11309F0CF91FF91EF91BF91AF919F918F917F9193
S1130A006F915F914F913F912F911F910F900BBE6A
S1130A100F900FBE0F901F90189585E08D8320E0F6
S1130A20AE014A5F5F4FBE016F5F7F4F8091DF264B
S1130A309091E0260E94DC1A112349F28091DB2672
S1130A409091DC2601978093DB269093DC26C8CF17
S1130A501F920F920FB60F9211240BB60F921F9391
S1130A602F933F934F935F936F937F938F939F93B2
S1130A70AF93BF93EF93FF93CF93DF9300D000D056
S1130A80CDB7DEB71E8220912008309121088091D5
S1130A90E9269091EA26A091EB26B091EC26820FEC
S1130AA0931FA11DB11D89839A83AB83BC8380915D
S1130AB04806182F107487FF37C082E08D8320E02A
S1130AC0AE014A5F5F4FBE016F5F7F4F8091DF26AB
S1130AD09091E0260E94DC1A1123B9F18091DB2663
S1130AE09091DC2601978093DB269093DC268E81FF
S1130AF081110E94A6172696CDBFDEBFDF91CF914C
S1130B00FF91EF91BF91AF919F918F917F916F91E1
S1130B105F914F913F912F911F910F900BBE0F90BA
S1130B200FBE0F901F90189586E08D8320E0AE01D4
S1130B304A5F5F4FBE016F5F7F4F8091DF269091C8
S1130B40E0260E94DC1A112349F28091DB26909161
S1130B50DC2601968093DB269093DC26C8CF1F9277
S1130B600F920FB60F9211240BB60F921F932F936F
S1130B703F934F935F936F937F938F939F93AF9321
S1130B80BF93EF93FF93CF93DF9300D000D0CDB703
S1130B90DEB71E8220912008309121088091E92639
S1130BA09091EA26A091EB26B091EC26820F931F38
S1130BB0A11DB11D89839A83AB83BC838091880670
S1130BC0182F107284FF37C083E08D8320E0AE01BC
S1130BD04A5F5F4FBE016F5F7F4F8091DF26909128
S1130BE0E0260E94DC1A1123B9F18091DD26909150
S1130BF0DE2601968093DD269093DE268E81811178
S1130C000E94A6172696CDBFDEBFDF91CF91FF913C
S1130C10EF91BF91AF919F918F917F916F915F9170
S1130C204F913F912F911F910F900BBE0F900FBECC
S1130C300F901F90189587E08D8320E0AE014A5FE6
S1130C405F4FBE016F5F7F4F8091DF269091E0265A
S1130C500E94DC1A112349F28091DD269091DE2650
S1130C6001978093DD269093DE26C8CF1F920F92C2
S1130C700FB60F9211240BB60F921F932F933F932D
S1130C804F935F936F937F938F939F93AF93BF9390
S1130C90EF93FF93CF93DF9300D000D0CDB7DEB7AF
S1130CA01E8220912008309121088091E92690919C
S1130CB0EA26A091EB26B091EC26820F931FA11D8A
S1130CC0B11D89839A83AB83BC8380918806182FD6
S1130CD0107284FF1CC084E08D8320E0AE014A5F63
S1130CE05F4FBE016F5F7F4F8091DF269091E026BA
S1130CF00E94DC1A112309F447C08091DD269091EB
S1130D00DE2601978093DD269093DE261AC088E0C4
S1130D108D8320E0AE014A5F5F4FBE016F5F7F4F5E
S1130D208091DF269091E0260E94DC1A8091DD26D6
S1130D309091DE26111122C001978093DD269093B5
S1130D40DE268E8181110E94A6172696CDBFDEBFB6
S1130D50DF91CF91FF91EF91BF91AF919F918F91CF
S1130D607F916F915F914F913F912F911F910F90C0
S1130D700BBE0F900FBE0F901F9018950196809395
S1130D80DD269093DE26DDCF8091DD269091DE2650
S1130D9001968093DD269093DE26D3CF0FB6F89488
S1130DA00F921092DB261092DC261092DD26109210
S1130DB0DE260F900FBE08951F93CF93DF931F92EB
S1130DC01F92CDB7DEB710E8198382E28A8342E02E
S1130DD0BE016F5F7F4F8CE30E946F0A19831A82F2
S1130DE042E0BE016F5F7F4F8CE30E946F0A19835C
S1130DF087E08A8342E0BE016F5F7F4F8CE30E94ED
S1130E006F0A0F900F90DF91CF911F9108951F9358
S1130E10CF93DF931F921F92CDB7DEB710E81983EB
S1130E2081E28A8342E0BE016F5F7F4F8CE30E94C0
S1130E306F0A19831A8242E0BE016F5F7F4F8CE311
S1130E400E946F0A19838FE78A8342E0BE016F5FB5
S1130E507F4F8CE30E946F0A0F900F90DF91CF9128
S1130E601F910895BF92CF92DF92EF92FF920F935A
S1130E701F93CF93DF93CDB7DEB76197CDBFDEBFAE
S1130E808091A921882349F10E9407078091A92113
S1130E90811130C08BEAC82E81E2D82E9BEAE92E5C
S1130EA095E2F92E8E010E5E1F4F20E4B22EB98218
S1130EB0FE013296D6018D918193E017F107D9F79F
S1130EC041E1BE016F5F7F4F8CE30E946F0A80E1B6
S1130ED0C80ED11CEC14FD0451F76196CDBFDEBFE2
S1130EE0DF91CF911F910F91FF90EF90DF90CF9002
S1130EF0BF9008950E94DC06CDCFCF93DF931F925D
S1130F001F92CDB7DEB78091A921882359F080E8DC
S1130F1089838EEA8A8342E0BE016F5F7F4F8CE350
S1130F200E946F0A0F900F90DF91CF9108950F9355
S1130F301F93CF93DF9300D01F92CDB7DEB71092EB
S1130F40A9218093AA2110E819838EEA8A8342E0BA
S1130F50BE016F5F7F4F8CE30E946F0A882309F400
S1130F60C3C0198385ED8A831B831C8344E0BE01BF
S1130F706F5F7F4F8CE30E946F0A198388EA8A832C
S1130F801B838FE38C8344E0BE016F5F7F4F8CE350
S1130F900E946F0A198383ED8A831B831C8244E0B9
S1130FA0BE016F5F7F4F8CE30E946F0A19838DE847
S1130FB08A831B8384E18C8344E0BE016F5F7F4F8F
S1130FC08CE30E946F0A198300E40A8342E0BE01A5
S1130FD06F5F7F4F8CE30E946F0A198386EA8A83CE
S1130FE042E0BE016F5F7F4F8CE30E946F0A19835A
S1130FF084EA8A8342E0BE016F5F7F4F8CE30E94E4
S11310006F0A198381EA8A8342E0BE016F5F7F4FD2
S11310108CE30E946F0A198388EC8A8342E0BE0144
S11310206F5F7F4F8CE30E946F0A198380E28A838B
S113103042E0BE016F5F7F4F8CE30E946F0A198309
S11310401A8242E0BE016F5F7F4F8CE30E946F0AF9
S113105019838AED8A831B8382E18C8344E0BE0179
S11310606F5F7F4F8CE30E946F0A198381E88A8344
S11310701B838FE88C8344E0BE016F5F7F4F8CE35A
S11310800E946F0A198389ED8A831B8381EF8C8305
S113109044E0BE016F5F7F4F8CE30E946F0A1983A7
S11310A08BED8A831B830C8344E0BE016F5F7F4F0B
S11310B08CE30E946F0A19838FEA8A8342E0BE019F
S11310C06F5F7F4F8CE30E946F0A80E094E0EBEA4D
S11310D0F1E2DF019C011D9221503040E1F70E94B2
S11310E0320781E08093A9212496CDBFDEBFDF9132
S11310F0CF911F910F910895CF93C82F8091FA2516
S11311008E3450F59091FB25911106C0E82FF0E044
S1131110E455FA4D2FEF2083C11110C0E82FF0E001
S1131120E455FA4D20E830E0092E02C035952795A4
S11311300A94E2F720953081232320839F5F98301F
S113114039F41092FB258F5F8093FA25CF9108958F
S11311509093FB25CF91089567E270E08EE190E2D1
S11311600E9484269091FB258091FA2591110DC04F
S1131170E82FF0E0E455FA4D2FEF20838E3460F22F
S113118081E08093FB25CF9108958E3428F29F5FF0
S11311909830B9F2DDCF80E00E947C0881E00E94A3
S11311A07C0881E00E947C0881E00E947C0881E048
S11311B00C947C0880E00E947C0880E00E947C08FB
S11311C080E00E947C0880E00E947C0881E00C940E
S11311D07C08CF93DF93D82FC8E005C00E94CB08CA
S11311E0DD0FC15039F0D7FFF9CF0E94DA08DD0FC7
S11311F0C150C9F7DF91CF910895E0E0F6E080E4B3
S11312008183868308953F924F925F926F927F927B
S11312108F929F92AF92BF92CF92DF92EF92FF9202
S11312200F931F93CF93DF93362E472E582ED22E33
S1131230132FD42F88E08093610690E49093730673
S11312401092A3098093A40980EC8093A50985E0FA
S11312508093A6098CEA882E85E2982E9AEF692E4F
S113126095E2792EF4018FEF81936E167F06E1F7F4
S11312701092FA25C5E881E00E947C08C150D9F794
S1131280832D0E94E908842D0E94E908852D0E947F
S1131290E9088D2D0E94E908812F0E94E9088D2F0D
S11312A00E94E9088E2D0E94E9088F2D0E94E9080A
S11312B0802F0E94E9088A2D0E94E9088B2D0E9444
S11312C0E9088C2D0E94E9080FB6F8940F92109249
S11312D0AB2580E48093050620E4F40191914F014D
S11312E08091A10985FFFCCF2093A1099093A009C7
S11312F06814790491F78FEE90E00197F1F700C03C
S1131300000080E4809306060F900FBEDF91CF911A
S11313101F910F91FF90EF90DF90CF90BF90AF900F
S11313209F908F907F906F905F904F903F90089523
S113133080E2809341060895811104C080E2809385
S11313404606089580E28093450608958BEC8093C9
S1131350520088E0809350008091510083FFFCCFBD
S113136082EC8093550088E1809350008091510075
S113137084FFFCCF88ED84BF84E08093400080E04C
S1131380089510920126E0E8F6E088E1808B818BD5
S1131390E0EAF4E088E7818383E2858381E0848363
S11313A00E94C21A8093FE259093FF2543E060E0DB
S11313B081E00E94AF198093FC259093FD25089548
S11313C0CF92DF92EF92FF920F931F93CF93DF930D
S11313D0D82F6B01142F79016FEF7FEF8091FE25D9
S11313E09091FF250E94471CC0920826D09209269E
S11313F0E0920626F0920726C0910126C11155C03D
S113140081E080930126109200268D2F880F80930F
S11314100A261093052600930426109203261092A0
S11314200226809105268823B1F180910A268E7FB9
S11314308093A6046FEF7FEF8091FC259091FD25AA
S11314400E94471C809100268130E1F11F928F9306
S11314501F92DF938DE390E29F938F930E94D03687
S113146020E040E050E060E070E08091FE25909143
S1131470FF250E94F3190F900F900F900F900F907B
S11314800F908C2FDF91CF911F910F91FF90EF90D0
S1131490DF90CF90089580910426882359F280919B
S11314A00A2681608093A604C5CF20E040E050E086
S11314B060E070E08091FE259091FF250E94F31971
S11314C0C0E0DFCF20E040E050E060E070E08091D9
S11314D0FE259091FF250E94F319C1E0D2CF0F930E
S11314E000E020E030E00E94E0090F91089590911F
S11314F00526209104268091A40484FD22C08091B5
S11315000326891768F080910226821718F183E078
S11315108093A30481E0809300261092012608950D
S113152080910326E0910826F0910926E80FF11D29
S113153080818093A704809103268F5F8093032684
S1131540089583E08093A30485E08093002610929D
S11315500126089580910A2681608093A604089547
S1131560809102268032F8F48091A704909102269B
S1131570E0910626F0910726E90FF11D8083809102
S113158002268F5F80930226909104268091022682
S11315908917B8F087E08093A30481E08093002644
S11315A010920126089583E08093A30482E080933F
S11315B00026109201269091042680910226891714
S11315C048F782E08093A30408951F920F920FB608
S11315D00F9211240BB60F922F933F934F935F9367
S11315E06F937F938F939F93AF93BF93EF93FF93E7
S11315F0CF93DF931F92CDB7DEB719828091A404F5
S1131600982F9C70E1F486FD44C087FD45C086E0B8
S113161080930026109201268091012681111FC01B
S1131620BE016F5F7F4F8091FC259091FD250E9444
S1131630371B8981882399F00E94A61710C08091D6
S1131640A40482FD22C093E09093002688608093D6
S1131650A4041092012680910126882309F30F9097
S1131660DF91CF91FF91EF91BF91AF919F918F91B6
S11316707F916F915F914F913F912F910F900BBE8E
S11316800F900FBE0F901F90189594E09093002632
S1131690DDCF0E94770ADFCF0E94B00ADCCFCF9360
S11316A0DF931F92CDB7DEB74FEF5FEFBE016F5FE1
S11316B07F4F8091E1269091E2260E948A1B8981C6
S11316C090E00F90DF91CF910895CF93DF931F9215
S11316D01F92CDB7DEB78A8320E04FEF5FEFBE01E4
S11316E06E5F7F4F8091E3269091E4260E94F31968
S11316F08091A10A85FF0EC040E050E0BE016F5FFB
S11317007F4F8091E3269091E4260E948A1B898171
S11317108093A00A80E090E00F900F90DF91CF912A
S1131720089540E061E080E80E94AF198093E326C9
S11317309093E42640E061E080E80E94AF19809332
S1131740E1269093E226E0E8F6E088E0818384E0F5
S11317508283E0EAFAE084E1838388E1848383E09E
S1131760858385EE86838CEB8783E7EFF6E286E05C
S113177090E2828393838083918308951F920F92D2
S11317800FB60F9211240BB60F922F933F934F93E2
S11317905F936F937F938F939F93AF93BF93EF93D5
S11317A0FF93CF93DF931F921F92CDB7DEB71982B9
S11317B0AE014F5F5F4FBE016E5F7F4F8091E326A6
S11317C09091E4260E94FE1D8130D9F08981811117
S11317D00E94A6170F900F90DF91CF91FF91EF9188
S11317E0BF91AF919F918F917F916F915F914F9135
S11317F03F912F910F900BBE0F900FBE0F901F9033
S113180018958A818093A00AE1CF1F920F920FB698
S11318100F9211240BB60F922F933F934F935F9324
S11318206F937F938F939F93AF93BF93EF93FF93A4
S1131830CF93DF931F921F92CDB7DEB719828091A9
S1131840A00A8A8320E0AE014F5F5F4FBE016E5F46
S11318507F4F8091E1269091E2260E94DC1A8981D3
S113186081110E94A6170F900F90DF91CF91FF91E5
S1131870EF91BF91AF919F918F917F916F915F9104
S11318804F913F912F910F900BBE0F900FBE0F9071
S11318901F901895EF92FF920F93CF93DF9300D090
S11318A01F92CDB7DEB77C0181E0898301E09E0100
S11318B02F5F3F4F41E0B90189E20E94E00989812D
S11318C084FB992790F9F701908383FB992790F97A
S11318D0928382FB992790F9918386FB992790F94B
S11318E09383881F8827881F84832496CDBFDEBFF7
S11318F0DF91CF910F91FF90EF9008950F931F9375
S1131900CF93DF9300D01F92CDB7DEB719828160E9
S11319108A8342E0BE016F5F7F4F89E20E946F0AB3
S113192020912008309121088091E9269091EA269F
S1131930A091EB26B091EC26820F931FA11DB11D3F
S113194080930B2690930C26A0930D26B0930E261D
S113195013E1198301E09E012F5F3F4F41E0B9017C
S113196089E20E94E0098981877099F38BE0898379
S113197081E08A8342E0BE016F5F7F4F89E20E946B
S11319806F0A19821A8242E0BE016F5F7F4F89E2BB
S11319900E946F0A81E02496CDBFDEBFDF91CF9114
S11319A01F910F910895EF92FF920F93CF93DF93BE
S11319B000D01F92CDB7DEB77B01898302E09E0180
S11319C02F5F3F4F41E0B90189E20E94E009E11431
S11319D0F10461F0298130E09A81985F02C0220FFE
S11319E0331F9A95E2F7F701208331832496CDBF04
S11319F0DEBFDF91CF910F91FF90EF9008958F920A
S1131A009F92AF92BF92CF92DF92EF92FF920F9389
S1131A101F93CF93DF9300D000D0CDB7DEB76C0116
S1131A207B0180E5898301E09E012F5F3F4F41E008
S1131A30B90189E20E94E00989818F5F880F90E0F3
S1131A40F7018083918386E489839E012F5F3F4F52
S1131A5041E0B90189E20E94E009098110E00F5FC9
S1131A601F4FF70104831583A081B0E020E03FE21B
S1131A704AE350E00E94E0336C507E4F8F4F9F4FFB
S1131A8038EE832E33E0932EA12CB12CA5019401C2
S1131A900E94AF33D8010E94EB336C507E4F8F4FBE
S1131AA09F4FA50194010E94AF33F701228733872A
S1131AB044875587BE016B5F7F4F81E50E94D30C3D
S1131AC08D819E818C01112702C0000F111F9A95F0
S1131AD0E2F70F5F1F4FF70106831783A081B0E081
S1131AE020E03FE24AE350E00E94E0336C507E4F36
S1131AF08F4F9F4FA50194010E94AF33D8010E94DC
S1131B00E0336C507E4F8F4F9F4FA50194010E948C
S1131B10AF33F70126873787408B518B80E7898362
S1131B2001E09E012F5F3F4F41E0B90189E20E942D
S1131B30E00989818F5F880F90E0F70182839383A6
S1131B40BE016B5F7F4F81E70E94D30C8D819E8124
S1131B508C01112702C0000F111F9A95E2F70F5F45
S1131B601F4FF70100871187F6018081882339F020
S1131B70F70186819781081B190B00871187F701EC
S1131B80A281B0E020E03FE24AE350E00E94E0336B
S1131B906C507E4F8F4F9F4F28EE822E23E0922E63
S1131BA0A12CB12CA50194010E94AF33D8010E944D
S1131BB0E0336C507E4F8F4F9F4FA50194010E94DC
S1131BC0AF33F701228B338B448B558B2696CDBFD5
S1131BD0DEBFDF91CF911F910F91FF90EF90DF90C7
S1131BE0CF90BF90AF909F908F9008954F925F9247
S1131BF06F927F928F929F92AF92BF92CF92DF9219
S1131C00EF92FF921F93CF93DF93CDB7DEB76F9719
S1131C10CDBFDEBF6B017C01CE0147960E944A0C0A
S1131C20BE016F5F7F4FCE014A960E94FF0C8F89E1
S1131C30882309F4B0C08B859C85AD85BE858C57FF
S1131C40924FAF4FBF4F298D222309F493C04B8588
S1131C505C856D857E854E545D4F6F4F7F4F440F7D
S1131C60551F661F771F840F951FA61FB71F1A8D58
S1131C70112361F04F85588969897A894C565D4FE3
S1131C806F4F7F4F840F951FA61FB71F2B8D2223E5
S1131C9009F49AC02C013D0126E2420E22E0521EB4
S1131CA0611C711CC414D504E604F70408F478C05C
S1131CB0AB81B0E020E03FE24AE350E00E94E03331
S1131CC04B015C0124EF820E21E0921EA11CB11C89
S1131CD0A70196012419350946095709A8EEB3E06E
S1131CE00E94E0332B013C01C501B40120ED37E033
S1131CF040E050E00E94AF33420E531E641E751E36
S1131D00C501B40128EE33E040E050E00E94AF3357
S1131D10C301B2010E94AF33112331F08F81988542
S1131D20280F391F411D511D21153105410551054C
S1131D3009F44CC0DA01C9010197A109B109AC0148
S1131D40BD01442720E030E0452B462B472B79F09A
S1131D50B695A795979587952F5F3F4FAC01BD0129
S1131D604427452B462B472B99F7322F2227822BCA
S1131D70932B2EC0288D222309F479CF4B855C85C3
S1131D806D857E854C565D4F6F4F7F4F840F951F39
S1131D90A61FB71F6CCF86E39BE0A0E0B0E053CF53
S1131DA080E06F96CDBFDEBFDF91CF911F91FF9092
S1131DB0EF90DF90CF90BF90AF909F908F907F90E7
S1131DC06F905F904F90089581E0EBCF80E090E0BA
S1131DD021E72C8F9D8F8E8F43E0BE01645E7F4F81
S1131DE089E20E946F0AC092E526D092E626E0922C
S1131DF0E726F092E82681E0D4CF2F923F924F92CB
S1131E005F926F927F928F929F92AF92BF92CF9286
S1131E10DF92EF92FF920F931F93CF93DF93CDB78F
S1131E20DEB7A197CDBFDEBF80EC898301E09E01C0
S1131E302F5F3F4F41E0B90189E20E94E009998197
S1131E40882309F4EFC59E3ED9F08DE690E20E9406
S1131E500C3780E0A196CDBFDEBFDF91CF911F91FB
S1131E600F91FF90EF90DF90CF90BF90AF909F9035
S1131E708F907F906F905F904F903F902F90089538
S1131E8088E889831A8242E0BE016F5F7F4F89E24E
S1131E900E946F0AE0E8EE2EE98211E01A8342E024
S1131EA0BE016F5F7F4F89E20E946F0AFF24FA949C
S1131EB0F9821A8342E0BE016F5F7F4F89E20E947C
S1131EC06F0A19821A8242E0BE016F5F7F4F89E276
S1131ED00E946F0A81E9898301E09E012F5F3F4FD1
S1131EE041E0B90189E20E94E009898180930F26CB
S1131EF019821A8342E0BE016F5F7F4F89E20E941C
S1131F006F0AF9821A8242E0BE016F5F7F4F89E255
S1131F100E946F0AE9821A8242E0BE016F5F7F4F1E
S1131F2089E20E946F0AF0E6DF2ED9829E012F5FBC
S1131F303F4F41E0B90189E20E94E0098981D982D9
S1131F4082618A8342E0BE016F5F7F4F89E20E9413
S1131F506F0A84E489831A8280E28B8343E0BE01A2
S1131F606F5F7F4F89E20E946F0A1983FA8242E011
S1131F70BE016F5F7F4F89E20E946F0AE9821A8374
S1131F8042E0BE016F5F7F4F89E20E946F0AF982CF
S1131F901A8342E0BE016F5F7F4F89E20E946F0A9D
S1131FA019821A8242E0BE016F5F7F4F89E20E946C
S1131FB06F0AF98286E08A8342E0BE016F5F7F4F39
S1131FC089E20E946F0AA3E8DA2ED9829E012F5F6C
S1131FD03F4F41E0B90189E20E94E0098981D98239
S1131FE084608A8342E0BE016F5F7F4F89E20E9472
S1131FF06F0AF98287E08A8342E0BE016F5F7F4FF8
S113200089E20E946F0A81E889831A8342E0BE0153
S11320106F5F7F4F89E20E946F0AE9821A8342E070
S1132020BE016F5F7F4F89E20E946F0A84E9898352
S11320308BE68A8342E0BE016F5F7F4F89E20E9494
S11320406F0AD9821A8242E0BE016F5F7F4F89E234
S11320500E946F0A20912008309121088091E9267E
S11320609091EA26A091EB26B091EC26820F931F63
S1132070A11DB11D80930B2690930C26A0930D26D1
S1132080B0930E26B3E8FB2E13E8F98201E09E011B
S11320902F5F3F4F41E0B90189E20E94E009898145
S11320A0882391F31983DD24D394DA8242E0BE01BC
S11320B06F5F7F4F89E20E946F0A82E989839E01E4
S11320C02F5F3F4F41E0B90189E20E94E009F980A6
S11320D081E889831A8242E0BE016F5F7F4F89E203
S11320E00E946F0AEE24EA94E98286E08A8342E041
S11320F0BE016F5F7F4F89E20E946F0A19839E01C0
S11321002F5F3F4F41E0B90189E20E94E0098981D4
S113211019838B7F8A8342E0BE016F5F7F4F89E220
S11321200E946F0AE982DA8242E0BE016F5F7F4F4C
S113213089E20E946F0A1982DA8242E0BE016F5F6F
S11321407F4F89E20E946F0AE9821A8242E0BE014F
S11321506F5F7F4F89E20E946F0A80E889831A8249
S113216042E0BE016F5F7F4F89E20E946F0A80EBFD
S1132170898306E09E01295E3F4F41E0BE016F5F07
S11321807F4F89E20E94E009E982DA8242E0BE01DF
S11321906F5F7F4F89E20E946F0A8FE489831A82FE
S11321A042E0BE016F5F7F4F89E20E946F0A8EE4B6
S11321B089838CE28A8342E0BE016F5F7F4F89E2AC
S11321C00E946F0AE9821A8242E0BE016F5F7F4F6C
S11321D089E20E946F0A86EB898384EB8A8342E05A
S11321E0BE016F5F7F4F89E20E946F0AF7FC20C433
S11321F040E000E050E021E030E07F2D7F7710C028
S11322005717D1F0808190E0602F677002C09595D8
S113221087956A95E2F780FD5F5F0F5F0033E1F019
S1132220802F869586958695E7E1F0E0EC0FFD1FFB
S1132230E80FF11D041720F7802F8770D90102C021
S1132240AA0FBB1F8A95E2F7CD018095908189235F
S113225080830F5F003321F780EB898386E0FE01E2
S11322607796DE01129601900D928A95E1F747E088
S1132270BE016F5F7F4F89E20E946F0A1FEF1983CF
S1132280FF24F394FA8242E0BE016F5F7F4F89E23C
S11322900E946F0A19821A8242E0BE016F5F7F4F6B
S11322A089E20E946F0A19831A8242E0BE016F5FBD
S11322B07F4F89E20E946F0A39E0B32EB9821A82F5
S11322C042E0BE016F5F7F4F89E20E946F0A80E1A6
S11322D089831A8242E0BE016F5F7F4F89E20E94C8
S11322E06F0A81E189831A8242E0BE016F5F7F4FEA
S11322F089E20E946F0A84E28983FA8242E0BE0185
S11323006F5F7F4F89E20E946F0A45E2942E9982A3
S11323101A8342E0BE016F5F7F4F89E20E946F0A19
S113232085E789831A8242E0BE016F5F7F4F89E2AD
S11323300E946F0A1983FA8242E0BE016F5F7F4FE9
S113234089E20E946F0A8EE489838CE28A8342E0E8
S1132350BE016F5F7F4F89E20E946F0A58E4A52E89
S1132360A9821A8242E0BE016F5F7F4F89E20E9418
S11323706F0A098360E2D62EDA8242E0BE016F5F03
S11323807F4F89E20E946F0A19831A8242E0BE01DC
S11323906F5F7F4F89E20E946F0A0983BA8242E02D
S11323A0BE016F5F7F4F89E20E946F0A84E58983D3
S11323B01A8242E0BE016F5F7F4F89E20E946F0A7A
S11323C071E3572E5982B4E0BA8342E0BE016F5FD5
S11323D07F4F89E20E946F0AE2E38E2E8982F3E046
S11323E04F2E4A8242E0BE016F5F7F4F89E20E9416
S11323F06F0AA0E4EA2EE98283E88A8342E0BE0100
S11324006F5F7F4F89E20E946F0AB6E46B2E698288
S11324109A8242E0BE016F5F7F4F89E20E946F0A99
S113242080E689831A8242E0BE016F5F7F4F89E2B2
S11324300E946F0A87E289831A8242E0BE016F5FBD
S11324407F4F89E20E946F0A80E5898386E0282E07
S11324502A8242E0BE016F5F7F4F89E20E946F0AC9
S113246081E589831A8242E0BE016F5F7F4F89E272
S11324700E946F0A82E5898386E98A8342E0BE016D
S11324806F5F7F4F89E20E946F0A86E5898398E037
S1132490992E9A8242E0BE016F5F7F4F89E20E94CB
S11324A06F0A87E589830A8342E0BE016F5F7F4F2D
S11324B089E20E946F0A81E689831A8242E0BE01A2
S11324C06F5F7F4F89E20E946F0A82E689831A82D6
S11324D042E0BE016F5F7F4F89E20E946F0A84E68B
S11324E089831A8242E0BE016F5F7F4F89E20E94B6
S11324F06F0A85E689831A8242E0BE016F5F7F4FCF
S113250089E20E946F0A86E6898380EA8A8342E030
S1132510BE016F5F7F4F89E20E946F0A1983FA82BE
S113252042E0BE016F5F7F4F89E20E946F0A82E240
S113253089838A8242E0BE016F5F7F4F89E20E94F5
S11325406F0A27E4822E898284E18A8342E0BE01F5
S11325506F5F7F4F89E20E946F0A89E489831A833F
S113256042E0BE016F5F7F4F89E20E946F0A8AE4F6
S113257089831A8242E0BE016F5F7F4F89E20E9425
S11325806F0A19831A8242E0BE016F5F7F4F89E2AE
S11325900E946F0A8AE789832AE02A8342E0BE0107
S11325A06F5F7F4F89E20E946F0A8BE789831A82EB
S11325B042E0BE016F5F7F4F89E20E946F0A88E7A5
S11325C0898381E28A8342E0BE016F5F7F4F89E2A3
S11325D00E946F0A1983FA8242E0BE016F5F7F4F47
S11325E089E20E946F0A83E2898334E3332E3A82BC
S11325F042E0BE016F5F7F4F89E20E946F0A82E46E
S113260089831A8242E0BE016F5F7F4F89E20E9494
S11326106F0A44E4C42EC9821A8342E0BE016F5F8C
S11326207F4F89E20E946F0A55E4752E798286E213
S11326308A8342E0BE016F5F7F4F89E20E946F0A86
S1132640698265E0662E6A8242E0BE016F5F7F4F59
S113265089E20E946F0AE982EA8242E0BE016F5F6A
S11326607F4F89E20E946F0A8EE089832A8242E0CA
S1132670BE016F5F7F4F89E20E946F0AD9828AE1AF
S11326808A8342E0BE016F5F7F4F89E20E946F0A36
S113269083E48983EA8242E0BE016F5F7F4F89E26F
S11326A00E946F0A19831A8242E0BE016F5F7F4F56
S11326B089E20E946F0A39824A8242E0BE016F5F5A
S11326C07F4F89E20E946F0A85E38983CA8242E0D0
S11326D0BE016F5F7F4F89E20E946F0A1983FA82FD
S11326E042E0BE016F5F7F4F89E20E946F0A598208
S11326F084E08A8342E0BE016F5F7F4F89E20E94DB
S11327006F0A8BE48983BA8242E0BE016F5F7F4F18
S113271089E20E946F0A8CE489836A8242E0BE01E6
S11327206F5F7F4F89E20E946F0A8DE48983A4E082
S1132730AA8342E0BE016F5F7F4F89E20E946F0A65
S113274019831A8242E0BE016F5F7F4F89E20E94C3
S11327506F0AC9821A8242E0BE016F5F7F4F89E22D
S11327600E946F0A7982DA8242E0BE016F5F7F4F76
S113277089E20E946F0A89829A8242E0BE016F5FF9
S11327807F4F89E20E946F0AA98288E28A8342E02D
S1132790BE016F5F7F4F89E20E946F0A87E68983DB
S11327A01A8242E0BE016F5F7F4F89E20E946F0A86
S11327B080E78983B4E0BA8342E0BE016F5F7F4F54
S11327C089E20E946F0A81E78983FA8242E0BE01AE
S11327D06F5F7F4F89E20E946F0A82E789838EEFE1
S11327E08A8342E0BE016F5F7F4F89E20E946F0AD5
S11327F086E789831A8242E0BE016F5F7F4F89E2D8
S11328000E946F0A87E789831A8242E0BE016F5FE4
S11328107F4F89E20E946F0A1983FA8242E0BE0167
S11328206F5F7F4F89E20E946F0A8DE08983FA828D
S113283042E0BE016F5F7F4F89E20E946F0A1983F5
S11328401A8242E0BE016F5F7F4F89E20E946F0AE5
S113285070E8E72EE982FA8242E0BE016F5F7F4FA3
S113286089E20E946F0AF98288EF8A8342E0BE01FE
S11328706F5F7F4F89E20E946F0A1983FA8242E0F8
S1132880BE016F5F7F4F89E20E946F0A8EE88983E1
S1132890FA8242E0BE016F5F7F4F89E20E946F0AB5
S11328A01982FA8242E0BE016F5F7F4F89E20E9483
S11328B06F0A19831A8242E0BE016F5F7F4F89E27B
S11328C00E946F0AE9821A8242E0BE016F5F7F4F65
S11328D089E20E946F0A2AE0298384E08A8342E025
S11328E0BE016F5F7F4F89E20E946F0A14E819836B
S11328F001E09E012F5F3F4F41E0B90189E20E9450
S1132900E009898119838F7E8A8342E0BE016F5F6B
S11329107F4F89E20E946F0A8BE08983FA8242E04A
S1132920BE016F5F7F4F89E20E946F0ACE014D9610
S11329300E944A0CBE016F5F7F4FCE0180960E94B9
S1132940FF0C8D8D882309F486C08B859C85AD850D
S1132950BE858C57924FAF4FBF4F2F8D222309F462
S113296069C04B855C856D857E854E545D4F6F4F88
S11329707F4F440F551F661F771F840F951FA61F97
S1132980B71F28A1222361F04F85588969897A8964
S11329904C565D4F6F4F7F4F840F951FA61FB71F77
S11329A029A1222361F04B895C896D897E894A5D66
S11329B05D4F6F4F7F4F840F951FA61FB71F8093E6
S11329C0E5269093E626A093E726B093E82681E0D7
S11329D0898388EE8A8342E0BE016F5F7F4F89E27C
S11329E00E946F0A6091E5267091E6268091E726A1
S11329F09091E8266032AEE47A078105910508F0EB
S1132A004AC011E019831A8342E0BE016F5F7F4F11
S1132A1089E20E946F0A80E40E947E0C811120C02A
S1132A2080E018CA85E590E20E940C3780E012CA63
S1132A304CE0DFCB2E8D222309F4A3CF4B855C859C
S1132A406D857E854C565D4F6F4F7F4F840F951F6C
S1132A50A61FB71F96CF86E39BE0A0E0B0E07DCF32
S1132A60198382E08A8342E0BE016F5F7F4F89E26F
S1132A700E946F0A80E00E947E0C882389F21983E9
S1132A8088EE8A8342E0BE016F5F7F4F89E20E9435
S1132A906F0A81E0DFC90E94F60DB3CF0F931F9335
S1132AA0CF93DF93EC010E941422809110268111B0
S1132AB021C0E091ED26F091EE26CF01019680939E
S1132AC015269093162610921726109218268FEF2B
S1132AD09FE380931326909314261092112610924C
S1132AE012268383948381E196E28183928381E039
S1132AF080931026209709F464C0AE014C5F5F4FA9
S1132B002396CE3FDF4308F05CC0E0911526F09198
S1132B101626A5E1B6E206C080819181009739F0BE
S1132B20DF01FC012281338124173507A8F3C6E2B3
S1132B30E131FC0709F445C0CD91DC9111978E0178
S1132B400C5F1F4F808191818D939C93C901841BDD
S1132B50950B8930910500F1BF01640F751FDB01EE
S1132B6012968D939C9313974283538312962D91BF
S1132B703C911397A5E1B6E201C0DF01ED91FC9110
S1132B8011978281938182179307B8F3EB01E8834D
S1132B90F9836D937C939A01809114209091152070
S1132BA0821B930B80931420909315200E94FE2285
S1132BB00115110541F0C801DF91CF911F910F91CB
S1132BC008950E94FE220E943B2600E010E0C80106
S1132BD0DF91CF911F910F910895CF93DF930097C9
S1132BE021F1EC0124970E9414224A815B81A5E122
S1132BF0B6E201C0DF01ED91FC911197228133818E
S1132C0024173507B8F3E883F983CD93DC938091D7
S1132C10142090911520480F591F4093142050936D
S1132C201520DF91CF910C94FE22DF91CF9108956E
S1132C30FC010396818392832FEF3FEF2383348338
S1132C40858396838783908710820895FC0110867C
S1132C5011860895CF93DF939C01FB01DC0111964B
S1132C60CD91DC911297C283D3838C819D8184831F
S1132C7095838C819D81DC0112966D937C931397CF
S1132C806C837D8320873187F90180818F5F808306
S1132C90DF91CF910895CF93DF93EB014881598160
S1132CA04F3F2FEF520701F1DC01139601C0DF0102
S1132CB01296ED91FC9113972081318142175307AD
S1132CC0B0F7EA83FB83C483D583AC83BD831296B8
S1132CD0CD93DC93139788879987FC0120812F5F1C
S1132CE02083DF91CF910895FC01A781B0851296CE
S1132CF0ED91FC911397E5CFCF93DF93FC01A08571
S1132D00B1852281338184819581E9018C839D83FE
S1132D1084819581EC012A833B8311962D913C910A
S1132D201297E217F30749F0108611868C918150AF
S1132D308C938C91DF91CF91089511968D939C93F0
S1132D401297F2CF31E1FC013083319722E22083E4
S1132D503197A3E3A08331976083319770833197D0
S1132D60108231971082319760E860833197108226
S1132D70319762E06083319763E06083319764E068
S1132D806083319765E06083319766E060833197B3
S1132D9067E06083319768E06083319769E060831E
S1132DA0319760E1608331973083319732E130832A
S1132DB0319733E13083319734E13083319735E112
S1132DC03083319736E13083319737E1308331975F
S1132DD038E13083319739E13083319730E2308301
S1132DE0319731E2308331972083319723E2208376
S1132DF03197408331975083319726E2208331976E
S1132E0027E22083319728E22083319729E2208327
S1132E10319720E32083319721E320838797089516
S1132E20E0E0F8E08FEF9FEF80A791A781E0808337
S1132E3090E491838683878380E09DE786A397A3AC
S1132E40A091B726B091B826CD91CDBFDD91DEBF5C
S1132E50FF91EF91DF91CF91BF91AF919F918F91AE
S1132E607F916F915F914F913F912F911F910F919E
S1132E70FF90EF90DF90CF90BF90AF909F908F9096
S1132E807F906F905F904F903F902F901F900F9086
S1132E900FBE0F90089581E008950F920FB6F89435
S1132EA00F921F9211242F923F924F925F926F9232
S1132EB07F928F929F92AF92BF92CF92DF92EF92C6
S1132EC0FF920F931F932F933F934F935F936F93AF
S1132ED07F938F939F93AF93BF93CF93DF93EF939E
S1132EE0FF93A091B726B091B8260DB60D920EB6F9
S1132EF00D920E940824A091B726B091B826CD91D6
S1132F00CDBFDD91DEBFFF91EF91DF91CF91BF91F6
S1132F10AF919F918F917F916F915F914F913F916D
S1132F202F911F910F91FF90EF90DF90CF90BF9062
S1132F30AF909F908F907F906F905F904F903F9055
S1132F402F901F900F900FBE0F900895809120082E
S1132F50909121088C599F4F8093280890932908B9
S1132F6020912808309129088091260890912708FB
S1132F702817390770F0209126083091270880918E
S1132F80280890912908821B930B8093280890931A
S1132F90290808950F920FB6F8940F921F921124E6
S1132FA02F923F924F925F926F927F928F929F9255
S1132FB0AF92BF92CF92DF92EF92FF920F931F9343
S1132FC02F933F934F935F936F937F938F939F932D
S1132FD0AF93BF93CF93DF93EF93FF93A091B72663
S1132FE0B091B8260DB60D920EB60D92209126081A
S1132FF0309127088091E9269091EA26A091EB264A
S1133000B091EC26820F931FA11DB11D8093E92678
S11330109093EA26A093EB26B093EC260E942422F8
S11330200E940824A091B726B091B826CD91CDBFB7
S1133030DD91DEBFFF91EF91DF91CF91BF91AF9111
S11330409F918F917F916F915F914F913F912F91BC
S11330501F910F91FF90EF90DF90CF90BF90AF90B2
S11330609F908F907F906F905F904F903F902F90A4
S11330701F900F900FBE0F90189508950F920FB6E2
S1133080F8940F921F9211242F923F924F925F92C5
S11330906F927F928F929F92AF92BF92CF92DF9264
S11330A0EF92FF920F931F932F933F934F935F934E
S11330B06F937F938F939F93AF93BF93CF93DF933C
S11330C0EF93FF93A091B726B091B8260DB60D9259
S11330D00EB60D928FEF9FEF8093280890932908E6
S11330E00E940824A091B726B091B826CD91CDBFF7
S11330F0DD91DEBFFF91EF91DF91CF91BF91AF9151
S11331009F918F917F916F915F914F913F912F91FB
S11331101F910F91FF90EF90DF90CF90BF90AF90F1
S11331209F908F907F906F905F904F903F902F90E3
S11331301F900F900FBE0F9018950F931F93CF936E
S1133140DF93EC01042F1A8D4C8D41110DC0888141
S11331509981892B09F443C01F5F80E01A8FDF91A6
S1133160CF911F910F91089550E0011115C08A81EC
S11331709B810E94FF352C8D8A819B81820F911D3A
S11331808A839B832C813D818217930728F388814E
S113319099818A839B83E0CF8E819F810E94FF3532
S11331A08C8D90E09195819591092E813F81280F16
S11331B0391F2E833F83488159812417350730F402
S11331C02C813D81820F931F8E839F83023021F6D1
S11331D0112311F080E0C2CF11E080E0BFCF8C81D9
S11331E09D810E9462251C821D821F5FB7CFFC0156
S11331F0CB01448D442391F050E066817781640FC4
S1133200751F66837783248135816217730720F0E5
S113321060817181668377830C94FF350895EF9202
S1133220FF920F931F93CF938C010FB6F8940F92D4
S1133230FC01C68D1C16C4F4FC0181898823A1F00D
S11332407801F1E1EF0EF11C06C0C15069F0F801FC
S11332508189882349F0C7010E9432248823A9F375
S11332600E94EB24C15099F78FEFF801868F0F90DD
S11332700FBE0FB6F8940F92C58D1C16C4F4F80156
S113328080858823A1F07801F8E0EF0EF11C06C0D8
S1133290C15069F0F8018085882349F0C7010E9474
S11332A032248823A9F30E94EB24C15099F78FEFAD
S11332B0F801858F0F900FBECF911F910F91FF9052
S11332C0EF9008951F93CF93DF93EC01162F892B72
S11332D009F43EC00FB6F8940F92488159818B8D42
S11332E06C8D9A01869F200D311D11242C833D8302
S11332F01A8E4A835B8390E00197689F9001699FCF
S1133300300D1124CA01820F931F8E839F838FEF88
S11333108D8F8E8F111113C08885811107C00F9076
S11333200FBE81E0DF91CF911F910895CE010896E1
S11333300E943224882399F30E944D17F0CFCE01C6
S113334008960E941816CE0141960E941816E7CFDF
S113335063E071E08CE890E20E948426BBCFFF9288
S11333600F931F93CF93DF93182F062FF42E8823E8
S113337099F10023D1F0109FC001112481960E947D
S11333804E15EC01009751F08196888399831B8F29
S11333900C8F61E0CE010E946219F8A2CE01DF9188
S11333A0CF911F910F91FF90089581E290E00E94C8
S11333B04E15EC01892B91F3C883D9831B8F0C8F95
S11333C061E0CE010E946219F8A2CE01DF91CF9193
S11333D01F910F91FF90089566E771E08CE890E2E9
S11333E00E948426C6CFBF92CF92DF92EF92FF92C3
S11333F00F931F93CF93DF93CDB7DEB72597CDBF40
S1133400DEBF8C016B014C835D83B22E892B09F4E2
S1133410B2C0C114D10409F4A2C0F2E0BF1609F489
S11334207DC0F801838D20E07801F8E0EF0EF11CF7
S113343010C06C817D81C7010E941224C8010E94C2
S11334400F190E94FE22882309F44AC0F801838DD3
S113345021E00FB6F8940F92F801928D981708F4B2
S113346042C0F2E0BF1609F43EC08C819D81892BD5
S113347009F460C0222359F10F900FBE0E94142258
S11334800FB6F8940F92F801858D8F3F39F1F8014A
S1133490868D8F3F09F10F900FBEBE016C5F7F4F89
S11334A0CE0101960E949424811148C00FB6F8946D
S11334B00F92F801928D0F900FBE838D981709F427
S11334C0B8CFC8010E940F190E94FE22BFCFCE01BF
S11334D001960E948924D0CF168EDDCF158ED7CFCA
S11334E00E944D17B3CF4B2DB601C8010E949D1801
S11334F0F801918991112CC0811127C00F900FBE42
S113350081E02596CDBFDEBFDF91CF911F910F9152
S1133510FF90EF90DF90CF90BF900895F801838DD6
S1133520813009F480CF63EF72E08CE890E20E946E
S1133530842677CF0F900FBE80E0E3CFC8010E94AE
S11335400F190E94FE2280E0DCCF0E944D17D6CFD7
S1133550C80141960E943224882381F2F6CFF801F3
S1133560848D882309F459CF62EF72E08CE890E2ED
S11335700E94842652CF61EF72E08CE890E20E94B0
S1133580842647CFCF93DF93482F60E081E00E94E9
S1133590AF19EC01009761F01C821D821882198218
S11335A01E8220E040E050E060E070E00E94F319E9
S11335B0CE01DF91CF910895CF92DF92EF92FF92E7
S11335C00F931F93CF93DF93EC018B016A01F22ECB
S11335D0892B09F445C001151105C1F182E0F816E3
S11335E071F09A8D8B8D9817A0F080E0DF91CF91C8
S11335F01F910F91FF90EF90DF90CF9008958B8DE6
S1133600813031F065EC73E08CE890E20E9484260E
S11336108A8DEE8C4F2DB801CE010E949D18EFEFDC
S1133620EE1621F0E394EE8E81E0E0CF89898823C1
S1133630D9F3CE0141960E9432248823A9F3C11400
S1133640D10491F381E0F6018083D0CF8C8D88235F
S113365029F264EC73E08CE890E20E948426BECFE9
S113366063EC73E08CE890E20E948426B4CF0F935D
S11336701F93CF93DF93EC018B01892B09F443C093
S11336808C8D81111BC088819981892B09F18A8DC8
S11336909B8D891768F49E8D8F5F8A8F9F3F19F1E8
S11336A09F5F9E8F81E0DF91CF911F910F910895CD
S11336B080E0DF91CF911F910F91089564E674E04B
S11336C08CE890E20E94842688819981892BF9F6FE
S11336D08C819D81892BD9F269E674E08CE890E2B3
S11336E00E948426D4CF89898823E1F2CE014196B1
S11336F00E9432248823B1F20115110599F281E068
S1133700F8018083D0CF60E674E08CE890E20E94F8
S11337108426B6CFAF92BF92CF92DF92FF920F93DF
S11337201F93CF93DF93CDB7DEB72597CDBFDEBF11
S11337308C015B014C835D83892B09F4A1C0A11426
S1133740B10409F491C020E06801F1E1CF0ED11C6D
S11337500FB6F8940F92F801F28CF1106AC08C81C4
S11337609D81892B09F473C0222309F459C00F9059
S11337700FBE0E9414220FB6F8940F92F801858DA3
S11337808F3F09F454C0F801868D8F3F09F44DC072
S11337900F900FBEBE016C5F7F4FCE0101960E9459
S11337A09424811122C00FB6F8940F92F801828DEF
S11337B00F900FBE811112C06C817D81C6010E94E1
S11337C01224C8010E940F190E94FE22882311F0BE
S11337D021E0BECF0E944D1721E0BACFC8010E945C
S11337E00F190E94FE2221E0B3CFC8010E940F19D5
S11337F00E94FE220FB6F8940F92F801828D0F906A
S11338000FBE8111E5CF2596CDBFDEBFDF91CF91ED
S11338101F910F91FF90DF90CF90BF90AF900895CC
S1133820CE0101960E948924A2CF168EB1CF158EA7
S1133830AACFB501C8010E94F718FA94F801F28ED4
S11338408085811108C00F900FBE81E0DCCF0F90FE
S11338500FBE80E0D8CFC80108960E943224882386
S113386091F30E944D17EFCFF801848D882309F45A
S11338706ACF64E075E08CE890E20E94842663CF0E
S113388060E075E08CE890E20E94842658CFDF92D5
S1133890EF92FF920F931F93CF93DF93CDB7DEB7D1
S11338A02597CDBFDEBF8C016C837D83892B09F402
S11338B0D0C0D8015C968C918111BBC0D12C20E082
S11338C07801B1E1EB0EF11C0FB6F8940F92F801F8
S11338D0828D811189C08C819D81892B09F49DC0C1
S11338E0222309F45FC00F900FBE0E9414220FB66A
S11338F0F8940F92D8015D968C915D978F3F09F4EF
S113390056C0F801868D8F3F09F458C00F900FBE42
S1133910BE016C5F7F4FCE0101960E9494248111F9
S113392023C00FB6F8940F92D8015A968C915A97E7
S11339300F900FBE811144C0F80180819181892BC1
S113394009F445C06C817D81C7010E941224C8011D
S11339500E940F190E94FE22882311F021E0B4CFA7
S11339600E944D1721E0B0CFC8010E940F190E9498
S1133970FE220FB6F8940F92F801828D0F900FBEBD
S11339808111ECCFDD2009F472C00FB6F8940F92C8
S11339908189811165C060E0F801848195810E946C
S11339A0B92543C0CE0101960E9489249CCF5D961F
S11339B01C92F801868D8F3F09F0A8CF168EA6CFF2
S11339C0C8010E940F190E94FE2221E07DCF0FB68C
S11339D0F8940F9214968D919C9115970E94EF2460
S11339E0D82E0F900FBEAECF8150828F80819181EF
S11339F0892B09F43EC0F8018085811121C00F9004
S1133A000FBE81E02596CDBFDEBFDF91CF911F9120
S1133A100F91FF90EF90DF900895DD2031F061EE7B
S1133A2075E08CE890E20E9484260F900FBE80E03F
S1133A30E9CF65E975E08CE890E20E9484263ECFE8
S1133A40C80108960E9432248823C9F20E944D17A7
S1133A50D6CF61E975E08CE890E20E94842629CFF4
S1133A600688F789E02D80816AE0681B95CF80E0A5
S1133A70C9CF0E942826D80114968D939C9315973C
S1133A80BACFCF92DF92EF92FF920F931F93CF930F
S1133A90DF93CDB7DEB72597CDBFDEBF8C016B01B9
S1133AA04C835D83892B09F4A2C0C114D10409F4A9
S1133AB092C020E07801F1E1EF0EF11C0FB6F8940A
S1133AC00F92F801828D811169C08C819D81892BAF
S1133AD009F474C0222309F458C00F900FBE0E9449
S1133AE014220FB6F8940F92F801858D8F3F09F4D4
S1133AF053C0F801868D8F3F09F44CC00F900FBE60
S1133B00BE016C5F7F4FCE0101960E949424811107
S1133B1022C00FB6F8940F92F801828D0F900FBE59
S1133B20811112C06C817D81C7010E941224C801D9
S1133B300E940F190E94FE22882311F021E0BECFBB
S1133B400E944D1721E0BACFC8010E940F190E94AC
S1133B50FE2221E0B3CFC8010E940F190E94FE2269
S1133B600FB6F8940F92F801828D0F900FBE811159
S1133B70E5CF2596CDBFDEBFDF91CF911F910F9189
S1133B80FF90EF90DF90CF900895CE0101960E94B0
S1133B908924A3CF168EB2CF158EABCFE680F780E3
S1133BA0B601C8010E94F718F801E682F7828189FC
S1133BB0811108C00F900FBE81E0DBCF0F900FBEC4
S1133BC080E0D7CFC80141960E943224882391F324
S1133BD00E944D17EFCFF801848D882309F469CF33
S1133BE06CE676E08CE890E20E94842662CF68E678
S1133BF076E08CE890E20E94842657CFCF92DF9241
S1133C00EF92FF920F931F93CF93DF93EC017B010D
S1133C106A01892BB9F1E114F104D1F01A8D111163
S1133C200AC080E0DF91CF911F910F91FF90EF9038
S1133C30DF90CF9008950D8DB701CE010E94F71843
S1133C4011501A8F0F3F71F00F5F0D8F81E0EACF93
S1133C508C8D882319F36CEF76E08CE890E20E9457
S1133C608426DCCF8885882389F3CE0108960E94B8
S1133C703224882359F3C114D10441F381E0F601BD
S1133C808083D0CF6BEF76E08CE890E20E948426AC
S1133C90C2CFCF93DF93EC01892B49F00FB6F89490
S1133CA00F928A8D0F900FBEDF91CF9108956AE82D
S1133CB077E08CE890E20E948426F0CF20C00FB613
S1133CC0F8940F92E0913A26F0913B26C681D78171
S1133CD0CE0102960E947C1680912A268150809300
S1133CE02A26809134268150809334260F900FBE6B
S1133CF08F89988D0E94ED15CE010E94ED1580915B
S1133D0034268111DCCF80915D26823010F00E9430
S1133D104D170E943A26F3CFE0914926F0914A26A6
S1133D200580F681E02D0680F781E02D8281938164
S1133D3080932026909321260895CF93DF93EC015E
S1133D40892B99F08A859B858B52964221F080E0DD
S1133D50DF91CF9108952C893D8986E22E3338076F
S1133D60B1F381E0232B99F7F3CF62EF76E080EA99
S1133D7090E20E948426E6CFFF920F931F93CF9385
S1133D80DF93EC01F62E00912826109129268091CC
S1133D90B7269091B82602960E947C16CF3F8FEFEB
S1133DA0D807A9F1C00FD11FE091B726F091B8262A
S1133DB0C283D3836091B7267091B826C017D10708
S1133DC0C8F08091492690914A266E5F7F4F0E94E9
S1133DD04B168091202690912126C817D90720F4EC
S1133DE0C0932026D0932126DF91CF911F910F916C
S1133DF0FF90089580914726909148266E5F7F4FEB
S1133E00DF91CF911F910F91FF900C944B16FF20DF
S1133E1049F26091B7267091B8266E5F7F4F8BE2AE
S1133E2096E2DF91CF911F910F91FF900C942A1687
S1133E300F931F93CF931092242620912008309142
S1133E4021088091E9269091EA26A091EB26B09171
S1133E50EC26820F931FA11DB11D0091192610910C
S1133E601A2620911B2630911C26081719072A07A9
S1133E703B07A0F4E091B726F091B82647A150A5DE
S1133E8061A572A5401B510B620B730B480F591FA0
S1133E906A1F7B1F47A350A761A772A780931926A7
S1133EA090931A26A0931B26B0931C26E091B72664
S1133EB0F091B8260788F08DE02D80819181A28150
S1133EC0B381853A954AA54AB54A09F44CC0609134
S1133ED0B7267091B8268091B7269091B826675E70
S1133EE07F4F0E945A26C09127268C2F90E09C0178
S1133EF0220F331F220F331F220F331FF901E80F44
S1133F00F91FE35AF94D408141110CC0CC2311F043
S1133F10C150EBCF6CE87BE080EA90E20E948426FB
S1133F20C150E3CF820F931FDC01A35AB94D119600
S1133F30ED91FC9112970280F381E02D1196ED939F
S1133F40FC931297805A994DE817F90759F1868125
S1133F5097818093B7269093B826C0932726CF9154
S1133F601F910F91089584819581A681B781853A27
S1133F70954AA54AB54A09F0AACF80859185A285BC
S1133F80B385853A954AA54AB54A09F0A0CF8485F8
S1133F909585A685B785853A954AA54AB54A09F017
S1133FA096CFA1CF0280F381E02D1196ED93FC937F
S1133FB01297CDCF5F926F927F928F929F92AF9222
S1133FC0BF92CF92DF92EF92FF920F931F93CF9302
S1133FD0DF934C01EB015A013901502ECA010E94B2
S1133FE04E158C01892B09F4DEC080E390E00E9419
S1133FF04E156C01009709F4D3C0DC0157960D935C
S11340001C935897209709F4D0C0C801A50165EA0C
S113401070E00E940836F1E0AF1AB108D601579655
S11340208D919C915897A80EB91EF60179969E0120
S1134030285F3F4FDE01899181938C91882319F089
S1134040C217D307B9F7F60110A2052D0A3008F0FC
S1134050A1C0D60156960C93569793960C939397BA
S113406094961C92E6012296CE010E942616C60161
S11340700C960E942616F601C086D1868AE090E04E
S1134080801B910984879587C28AD38A15A216A2B8
S113409017A210A611A612A613A614A615A616A654
S11340A017A6A301B401C5010E94A216D6018D93DF
S11340B09C93E114F10419F0F701C082D1820FB688
S11340C0F8940F9280912A268F5F80932A268091FC
S11340D0B7269091B826892B99F0809126268111D4
S11340E018C0E091B726F091B826D60156968C9167
S11340F09689891788F0C092B726D092B8260CC04A
S1134100C092B726D092B82680912A26813009F42D
S113411056C0D60156968C91909122269F5F90931B
S11341202226F60191A390912726981780F190E01A
S11341309C01220F331F220F331F220F331F820FC4
S1134140931FBE01835A994D0E942A160F900FBEE9
S113415080912626882351F0E091B726F091B82665
S11341609689D60156968C919817B0F081E0DF912C
S1134170CF911F910F91FF90EF90DF90CF90BF9060
S1134180AF909F908F907F906F905F9008958093F1
S11341902726CDCF09E05DCF0E944D1781E0E7CF00
S11341A0C8010E94ED158FEFE2CF60E673E080EA6C
S11341B090E20E948426F6018789908D27CF0DE531
S11341C016E257EBE52E56E2F52EC8010E941816AA
S11341D0075F1F4FE016F106C1F784E596E20E94DF
S11341E018168BE496E20E9418168EE396E20E945B
S11341F0181685E396E20E9418168BE296E20E9456
S1134200181684E596E28093492690934A268BE417
S113421096E28093472690934826F60186897CCFC0
S11342200F931F93CF93DF93EC010FB6F8940F9283
S1134230892B09F462C08E010E5F1F4FC8010E94D2
S11342407C168C899D89892B21F0CE010C960E94C5
S11342507C16B8018BE296E20E942A168FA5813063
S113426021F10F900FBE80912626882391F00FB67E
S1134270F8940F92E0914926F0914A2680818111A9
S11342802BC08FEF9FEF80932026909321260F90D1
S11342900FBE8091B7269091B826C817D90739F078
S11342A0DF91CF911F910F9108951FA6DACF8091CE
S11342B026268823A1F080911D26882331F068ECFE
S11342C076E080EA90E20E9484260E944D17DF91F6
S11342D0CF911F910F9108950E948C1ED8CF909179
S11342E02B2680912A26981799F080911D268823E1
S11342F049F081E080932426D3CFC091B726D09192
S1134300B82699CFDF91CF911F910F910C94181F6C
S11343101092B7261092B826C3CF0F931F93CF9352
S1134320DF93EC01892B09F43DC08091B72690916D
S1134330B826C817D90751F00FB6F8940F92CE01DA
S11343400E949D1E811107C00F900FBEDF91CF9177
S11343501F910F9108958E010E5F1F4FC8010E9497
S11343607C168E8990912726981710F4809327261F
S113437090E09C01220F331F220F331F220F331FA3
S1134380820F931FB801835A994D0E942A16E09117
S1134390B726F091B8269E8986899817A8F20E94BC
S11343A04D17D2CF6CE177E080EA90E20E94842638
S11343B08091B7269091B826C9CFEF92FF920F93C0
S11343C08EE1E82E86E2F82E00E020E030E040E0C6
S11343D051E064EB70E28EE59EE10E94DA1F8130C9
S11343E079F08F3F21F00F91FF90EF90089567E0EF
S11343F078E080EA90E20F91FF90EF900C9484268D
S1134400F8942FEF3FEF20932026309321268093BA
S1134410262610922826109229260E943D180F91D4
S1134420FF90EF900C94101780911D268F5F80935E
S11344301D2608950FB6F8940F9280912826909126
S113444029260F900FBE0895DF92EF92FF920F93EB
S11344501F93CF93DF9380911D268111B9C0E09003
S11344602826F09029268FEFE81AF80AE0922826E9
S1134470F0922926E114F10449F5E0914926F091DE
S11344804A2680818111ABC08091492690914A26A9
S113449020914726309148262093492630934A2676
S11344A08093472690934826809123268F5F80939C
S11344B02326E0914926F0914A268081811196C0F5
S11344C08FEF9FEF809320269093212680912026C2
S11344D090912126D12CE816F90608F453C0E091F6
S11344E04926F0914A268081882309F445C0E09149
S11344F04926F0914A260580F681E02DC681D781B0
S11345008A819B81E816F90608F473C08E010E5F58
S11345101F4FC8010E947C168C899D89892B21F02C
S1134520CE010C960E947C168E89909127269817AE
S113453010F48093272690E09C01220F331F220F52
S1134540331F220F331F820F931FB801835A994DD3
S11345500E942A16E091B726F091B8269E89868992
S1134560981708F4BCCFDD24D394E0914926F09148
S11345704A2680818111BBCF8FEF9FEF8093202645
S113458090932126E091B726F091B826868990E091
S1134590FC01EE0FFF1FEE0FFF1FEE0FFF1F8E0F2C
S11345A09F1FFC01E35AF94D8081823010F0DD2415
S11345B0D39480912426882311F0DD24D3948D2D67
S11345C0DF91CF911F910F91FF90EF90DF900895AD
S11345D0809125268F5F80932526D12CEACF66E62D
S11345E07AE080EA90E20E9484264ECF0E948C1EDC
S11345F06DCF8093202690932126C4CFFF920F93F2
S11346001F93CF93DF9380911D26882309F477C0ED
S11346100FB6F8940F9280911D26815080931D2629
S113462080911D26811162C080912A26882309F475
S11346305DC0C0E0D0E0FF24F39480913E2688233F
S1134640A1F1E0914326F0914426C681D781CE01A1
S11346500C960E947C168E010E5F1F4FC8010E94AB
S11346607C168E8990912726981710F4809327261C
S113467090E09C01220F331F220F331F220F331FA0
S1134680820F931FB801835A994D0E942A16E09114
S1134690B726F091B8269E898689981770F2F09211
S11346A0242680913E268111CCCFCD2B69F0E09158
S11346B04926F0914A26808181112CC08FEF9FEF0B
S11346C08093202690932126C0912526CC2351F057
S11346D0D1E00E9424228111D0932426C150C9F72D
S11346E01092252680912426811110C080E00F901D
S11346F00FBEDF91CF911F910F91FF9008956CE64B
S113470078E080EA90E20E94842682CF0E944D17CE
S113471081E0EDCF0E948C1ED7CF0F931F93CF93D0
S1134720DF938C01EB01892B09F446C02097E9F152
S113473080911D26811132C080911D268F5F809348
S11347401D264091282650912926F8012081318187
S1134750CE01820F931F4217530788F482179307E1
S113476088F0F801808391830E94FE22811102C0A7
S11347700E944D17DF91CF911F910F9108958217D9
S1134780930718F04817590760F7F801808391835D
S113479060E0841B950B0E94BC1EE6CF6CEC74E0B9
S11347A080EA90E20E948426C7CF6BEC74E080EA32
S11347B090E20E948426BCCF6AEC74E080EA90E226
S11347C00E948426B3CFCF93DF93EC01892B29F485
S11347D00E944D17DF91CF91089580911D2681117C
S11347E010C080911D268F5F80931D2660E0CE014E
S11347F00E94BC1E0E94FE22882351F3DF91CF91B8
S1134800089560E275E080EA90E20E948426E9CF90
S113481080911D26811102C00C94181F81E08093A1
S1134820242608950F931F93CF93DF93EC018B01FC
S1134830892B89F06091B7267091B826645F7F4F09
S1134840CE010E944B1661E0C801DF91CF911F9108
S11348500F910C94BC1E64EA7BE080EA90E20E9413
S11348608426E8CF0F931F93CF93DF93DC01159633
S1134870ED91FC911697C681D781209709F442C027
S11348808E01045F1F4FC8010E947C1680911D2673
S1134890811129C00A501109C8010E947C168E8911
S11348A090912726981728F190E09C01220F331F3E
S11348B0220F331F220F331F820F931FB801835A15
S11348C0994D0E942A16E091B726F091B8269E8948
S11348D08689891788F481E080932426DF91CF911B
S11348E01F910F910895B8018EE396E20E942A1653
S11348F0EACF80932726D8CF80E0DF91CF911F9114
S11349000F9108956FEF7BE080EA90E20E94842685
S1134910B7CF20912326FC012083209128263091B3
S113492029262183328308950F931F93CF93DF9316
S1134930EC018B01892B09F440C00115110509F420
S113494043C00FB6F8940F9280912826909129269F
S1134950F801208131812F3FFFEF3F0761F1498149
S11349605A81609123267881761719F08417950768
S113497080F4841B950B8217930768F0F80110826A
S1134980118281E00F900FBEDF91CF911F910F91A3
S1134990089581E0F7CF281B390BF8012083318378
S11349A080912326888380912826909129268983C3
S11349B09A8380E0E7CF80E0E5CF6AE67CE080EA96
S11349C090E20E948426B9CF6BE67CE080EA90E214
S11349D00E948426B6CF81E08093242608950F9305
S11349E01F93CF93DF93FC01892B09F441C02689DF
S11349F0A091B726B091B82656968C91281770F5D9
S1134A008485958597FD0CC0A091B726B091B826F2
S1134A1056963C918AE090E0831B910984879587A0
S1134A2030E0C901880F991F880F991F880F991FBB
S1134A30280F391F235A394D82859385821793078E
S1134A40E9F0A091B726B091B82656968C91868B42
S1134A5081E0DF91CF911F910F910895A091B72626
S1134A60B091B82681E023A156969C91291788F32A
S1134A7080E0DF91CF911F910F9108958F01EF0195
S1134A802296CE010E947C16E091B726F091B826BA
S1134A908689F801868B90912726981710F48093C5
S1134AA0272690E09C01220F331F220F331F220F71
S1134AB0331F820F931FBE01835A994D0E942A16F9
S1134AC081E0C7CF0F931F93CF93DF930097C9F073
S1134AD0EC018091B7269091B826C817D90731F018
S1134AE06FE77FE080EA90E20E9484268CA188230D
S1134AF0C1F181508CA32E899BA1291711F0882321
S1134B0031F080E0DF91CF911F910F9108958E01D4
S1134B100E5F1F4FC8010E947C162BA12E8B822F83
S1134B2090E04AE050E0481B590B4C875D87309178
S1134B302726321710F4209327269C01220F331FB7
S1134B40220F331F220F331F820F931FB801835A82
S1134B50994D0E942A1681E0DF91CF911F910F9108
S1134B60089560E87FE080EA90E20E9484268CA1A8
S1134B70C0CF0F931F93CF93DF93009779F0162F35
S1134B80EC018CA1882309F454C00BA1011758F03F
S1134B908E89801719F09CA1913039F0DF91CF9163
S1134BA01F910F910895012FF3CF2091B7263091D3
S1134BB0B826C217D30709F443C00E8B2C853D8554
S1134BC037FD06C02AE030E0201B31092C873D87E1
S1134BD090E09C01220F331F220F331F220F331F3B
S1134BE0820F931F835A994D2A853B8528173907CD
S1134BF0A9F68E010E5F1F4FC8010E947C168E8994
S1134C0090912726981710F48093272690E09C0112
S1134C10220F331F220F331F220F331F820F931FC4
S1134C20B801835A994DDF91CF911F910F910C9444
S1134C302A166EEC7FE080EA90E20E948426A5CFDB
S1134C4069EE7FE080EA90E20E9484268E89B5CFE7
S1134C508091B7269091B826892B39F0E091B72638
S1134C60F091B82684A18F5F84A38091B726909198
S1134C70B82608950895F89483EE90E20E945303B1
S1134C8080E880930106809305062FEF33EC99E0CA
S1134C90215030409040E1F700C0000080930606A8
S1134CA02FEF33EC99E0215030409040E1F700C001
S1134CB00000E9CFEB01F89480E88093010685E0D9
S1134CC091E20E9453036AE070E0CE010E947203F5
S1134CD080EE90E20E94530380E8809305062FEF54
S1134CE033ED90E3215030409040E1F700C00000E4
S1134CF0809306062FEF33ED90E32150304090402F
S1134D00E1F700C00000E9CF8C01EB01F89480E8E2
S1134D10809301068DE191E20E94530364E670E002
S1134D20C8010E9472038DE291E20E945303CE01F6
S1134D300E94970380EE90E20E94530380E88093E0
S1134D4005062FEF33EC99E0215030409040E1F715
S1134D5000C00000809306062FEF33ED90E321504E
S1134D6030409040E1F700C00000E9CF0E94A6095E
S1134D7080E090E40E94F3338093ED269093EE2636
S1134D80892B59F087E08093A20078940E94D92C53
S1134D900E94DD2180E090E00895FFCFCF93DF9360
S1134DA0CDB7DEB76097CDBFDEBF4FEF5FEFBE017B
S1134DB0675F7F4F8091EF269091F0260E94411DFE
S1134DC088E0FE013996DE01119601900D928A95D4
S1134DD0E1F729813A814B815C816D817E818F81EC
S1134DE098856096CDBFDEBFDF91CF910895609323
S1134DF0BD267093BE268093BF269093C02620E0E4
S1134E0040E050E060E070E08091BB269091BC26C9
S1134E100C94F31920E040E050E060E070E08091F1
S1134E20B9269091BA260C94F319CF93DF93CDB79A
S1134E30DEB76797CDBFDEBF0FC0823009F4AEC0C6
S1134E40833009F4FAC08091C3269091C4260E944D
S1134E50491E882309F496C04FEF5FEFBE016F5FD0
S1134E607F4F8091C3269091C4260E948A1B89811A
S1134E70813019F74E805F80688479848A809B80B2
S1134E80AC80BD800E941A228A879B870E94F92ADF
S1134E900E94C62B0E9491046B017C0120E030E04B
S1134EA0A901C501B4010E94752F2DEC3CE44FE427
S1134EB053E418160CF050C1C501B4010E941B2E16
S1134EC020E030E044EB53E40E947A2F20E030E00D
S1134ED040E450E40E941B2E6C8B7D8B8E8B9F8B49
S1134EE0B601DD0C880B990B0E94C52E9B01AC0109
S1134EF06C897D898E899F890E94AA2D0E948D2E9E
S1134F008B012DEC3CE44FE453E4C301B2010E9455
S1134F101B2E20E030E044EB53E40E947A2F20E083
S1134F2030E040E450E40E941B2E0E948D2EDC01F0
S1134F30CB01BC010E94D82B09C00C151D05B4F08F
S1134F406AE070E0CE010A960E948D230E949104CB
S1134F506B017C0120E030E0A901C501B4010E948D
S1134F60752F181654F3C016D10654F70E94122B4D
S1134F700E94D22B8091C3269091C4260E94491E80
S1134F8081116ACF20E040E050E060E070E0809161
S1134F90C1269091C2260E94F3195ECFCA80DB809D
S1134FA0EC80FD800E941A228A8B9B8B0E94F92A36
S1134FB00E94C62B0E9491042DEC3CE44FE453E480
S1134FC0C701B6010E941B2E20E030E044EB53E4FD
S1134FD00E947A2F20E030E040E450E40E941B2E2F
S1134FE00E94F72600E010E00BC00F5F1F4F053151
S1134FF01105E4F46AE070E0CE0142960E948D232C
S11350000E94CE262A873B874C875D876E877F87E1
S1135010888B998B2A853B858E859F85820F931F6C
S11350208A38934114F700E010E0E4CF0E940A2785
S11350300E94122B0E94D22B06CF4E805F80688480
S113504079848A809B80AC80BD800E941A228A87E2
S11350509B870E94F92A0E94C62B0E9491046B012F
S11350607C0126EC39ED47E75FE3C501B4010E94FA
S11350707A2F4B015C0120E030E0A9010E94752FDA
S113508018160CF0ABC0B601DD0C880B990B0E940E
S1135090C52E6B017C012DEC3CE44FE453E4C501C7
S11350A0B4010E941B2E20E030E044EB53E40E9444
S11350B07A2F20E030E040E450E40E941B2E9B0154
S11350C0AC01C701B6010E94A92D0E948D2E8B014F
S11350D02DEC3CE44FE453E4C301B2010E941B2EC7
S11350E020E030E044EB53E40E947A2F20E030E0EB
S11350F040E450E40E941B2E2B013C010E948D2EA3
S11351006B017C01C301B20190580E948D2EDC0119
S1135110CB01B6010E94D82B0AC0C016D1060CF4EC
S113512025CF6AE070E0CE010A960E948D230E948A
S113513091046B017C0120E030E0A901C501B401B8
S11351400E94752F18164CF30C151D0554F70E9478
S1135150122B0E94D22B0ECFC501B4010E941B2E2C
S113516020E030E044EB53E40E947A2F20E030E06A
S113517040E450E40E941B2E6C8B7D8B8E8B9F8BA6
S1135180B601DD0C880B990B0E94C52E9B01AC0166
S11351906C897D898E899F890E94AA2D0E948D2EFB
S11351A08B012DEC3CE44FE453E4C301B2010E94B3
S11351B01B2E20E030E044EB53E40E947A2F20E0E1
S11351C030E040E450E40E941B2E90580E948D2E43
S11351D0DC01CB01BC010E94D82BB8CEB601DD0C9A
S11351E0880B990B0E94C52E6B017C012DEC3CE4CD
S11351F04FE453E4C501B4010E941B2E20E030E0CB
S113520044EB53E40E947A2F20E030E040E450E481
S11352100E941B2E9B01AC01C701B6010E94A92D5F
S11352200E948D2E8B012DEC3CE44FE453E4C3012A
S1135230B2010E941B2E20E030E044EB53E40E94B4
S11352407A2F20E030E040E450E40E941B2E2B0132
S11352503C0190580E948D2E6B017C01C301B20168
S11352600E948D2EDC01CB01B6010E94D82B5FCFAA
S1135270EF92FF920F93E12CF12C03E020E030E059
S113528040E051E068E371E285E197E20E94DA1FB1
S113529040E069E081E00E94AF198093C3269093B7
S11352A0C42643E060E081E00E94AF198093C126E8
S11352B09093C2260F91FF90EF900895CF93DF93C0
S11352C0CDB7DEB72997CDBFDEBFE1E0E9836A83BE
S11352D07B838C839D832E833F834887598720E07B
S11352E04FEF5FEFBE016F5F7F4F8091C3269091B8
S11352F0C4260E94F3196FEF7FEF8091C12690912D
S1135300C2260E94471C2996CDBFDEBFDF91CF91F4
S11353100895CF93DF93CDB7DEB72997CDBFDEBF16
S1135320E3E0E9836A837B838C839D832E833F83BD
S11353304887598720E04FEF5FEFBE016F5F7F4FD3
S11353408091C3269091C4260E94F3196FEF7FEFDA
S11353508091C1269091C2260E94471C2996CDBFF8
S1135360DEBFDF91CF910895CF93DF93CDB7DEB742
S11353702C97CDBFDEBF0E941A228093C52690933E
S1135380C62619861A861B861C861D821E821F82CB
S1135390188677C020E030E0A901C701B6010E9459
S11353A0162E87FF0AC020E030E84BEB54E4C70117
S11353B0B6010E94A92D6B017C0120E030EF4FE77C
S11353C055ECC701B6010E94162E87FFB6C001E056
S11353D010EFC501B4010E94C52E9B01AC01698583
S11353E07A858B859C850E94A92D20E030E046E9D2
S11353F053E40E947A2F6B017C0120E030E0A90184
S11354000E94752F181654F420E030E84BEB54E456
S1135410C701B6010E94AA2D6B017C0120E030EF88
S11354204FE755E4C701B6010E94752F18160CF416
S11354308AC020E030E0A901C701B6010E94162EFF
S113544087FF0AC020E030E84BEB54E4C701B60103
S11354500E94A92D6B017C0120E030EF4FE755EC51
S1135460C701B6010E94162E87FF74C061E070EF79
S1135470C8010E9426046AE070E085EC96E20E946E
S11354808D230E9491046B017C0160E070E08091A7
S1135490CB269091CC260E94471C2601DD0C660881
S11354A07708813009F490C04701FF0CAA08BB08B3
S11354B040E050E0BE016F5F7F4F8091C92690911C
S11354C0CA260E948A1B813009F449C0C301B20173
S11354D00E94C52E9B01AC016D817E818F819885D0
S11354E00E94A92D20E030E046E953E40E947A2F7F
S11354F06B017C0120E030E0A9010E94752F181691
S113550054F420E030E84BEB54E4C701B6010E94A8
S1135510AA2D6B017C0120E030EF4FE755E4C70171
S1135520B6010E94752F18160CF034CFC12C90EFE1
S1135530D92E9FE7E92E95E4F92EC701B6010E9402
S11355408D2E8B0146CFC12C80EFD82E8FE7E82E0D
S113555085E4F82EC701B6010E948D2E89CF69819A
S11355607A81072E000C880B990B0E94C52E20E02F
S113557030E048EC52E40E941B2E9B01AC016D818B
S11355807E818F8198850E94AA2D6D837E838F836F
S113559098876B817C81072E000C880B990B0E94E5
S11355A0C52E20E030E048EC52E40E941B2E9B0103
S11355B0AC0169857A858B859C850E94AA2D6987B3
S11355C07A878B879C8782CFC301B2010E94C52E44
S11355D06D837E838F8398874701FF0CAA08BB08DD
S11355E0C501B4010E94C52E69877A878B879C8781
S11355F05FCF0E94CE0620E040E050E060E070E023
S11356008091CB269091CC260E94F3190E941A22F5
S11356108093C5269093C6268091C7269091C8266C
S11356200C948D218091C7269091C8260E94102148
S113563060E070E080E090E00C942604EF92FF922A
S11356400F930E94F50387ECE82E86E2F82E03E020
S113565020E030E040E051E06FE371E284EB99E256
S11356600E94DA1F0E94122B40E064E081E00E9455
S1135670AF198093C9269093CA2643E060E081E085
S11356800E94AF198093CB269093CC26009751F0BB
S113569020E040E050E060E070E00F91FF90EF9078
S11356A00C94F3190F91FF90EF900895CF93DF932B
S11356B000D01F92CDB7DEB789839A836B837C8336
S11356C020E04FEF5FEFBE016F5F7F4F8091C926EF
S11356D09091CA260E94F3192496CDBFDEBFDF91B4
S11356E0CF910895CF93DF9300D01F92CDB7DEB74B
S11356F00E941A228093CD269093CE264FEF5FEF1F
S1135700BE016F5F7F4F8091D1269091D2260E9477
S1135710411D6B817C8189819A810E94562B6AE0AC
S113572070E08DEC96E20E948D23E8CFEF92FF9219
S11357300F938FECE82E86E2F82E03E020E030E0B1
S113574040E051E066E471E282E79BE20E94DA1FE6
S11357508091CF269091D0260E94102140E064E0F1
S113576081E00E94AF198093D1269093D226E3ED75
S1135770F6E2108211821282138222E040E050E0AD
S1135780BF010F91FF90EF900C94F3190E941A221D
S11357908093CD269093CE268091CF269091D026CB
S11357A00C948D218091CF269091D0260C941021B9
S11357B0E3EDF6E2808391836283738322E040E029
S11357C050E0BF018091D1269091D2260C94F31918
S11357D00F931F93CF93DF9300EA10E087E0F80163
S11357E08283C8E4D0E08881817F84608883789450
S11357F082E090E00E94E323F80182818C7F82831F
S113580080E00E949C0982E090E00E94E32388816A
S113581081608883889588818E7F8883DF91CF918A
S11358201F910F910895CF93DF931F92CDB7DEB7E9
S11358304AC066246A9477247A9488248A94912CA2
S113584080FF07C090E8692E20E8722E30E8832E8E
S1135850912C84FF4BC022242A94312C412C512CAE
S113586051016201710182019301A401B301C401D8
S11358700E9403098AEF90E00E94E323298122FF1A
S11358803AC0AA24AA94BB24BA94C12CD12C6FEF99
S11358907FEF80E090E023FF0CC022242A9433247D
S11358A03A94412C512C66246A9477247A94812C5E
S11358B0912C710182019301A4010E9403098AEFD2
S11358C090E00E94E32340E050E0BE016F5F7F4F11
S11358D08091F1269091F2260E94411D898181FDDB
S11358E0A8CF612C712C812C912CAACF212C312C86
S11358F0412C512CB5CF51016201B301C401CBCF6E
S1135900EF92FF920F93CF93DF931F92CDB7DEB741
S113591040E061E081E00E94AF198093F12690930A
S1135920F226198222E040E050E0BE016F5F7F4F13
S11359300E94F319E12CF12C04E020E030E040E077
S113594052E06DE471E283E19CE20E94DA1F0F9061
S1135950DF91CF910F91FF90EF90089581E00E9425
S11359609C090E948F020E94910B0E9498090E9438
S1135970C1090E94FD080E942C0282E00E94970740
S11359800E94FD0E0E947D0782E390E00E94E323C3
S113599080E2809301060E941E2B0E94962B0E9497
S11359A0802C0E94952D0E94382980E090E00C9470
S11359B01021EF92FF920F93E12CF12C03E020E0F1
S11359C030E040E051E061E571E28EEA9CE20E9441
S11359D0DA1F0F91FF90EF900895CF93DF93CDB727
S11359E0DEB7C850D140CDBFDEBF8CEBE82E83E0DC
S11359F0F82E0DE513E089E591E20E940C37409101
S1135A00F7265091F82667EC70E0CE0101960E94CB
S1135A1062366BE271E2CE0101960E94FB3500977B
S1135A2031F0BC01CE0187539F4F0E940F366BE2C9
S1135A3071E280E090E00E94FB35009731F10E9412
S1135A4014354B015C016BE271E280E090E00E944E
S1135A50FB35009729F10E9414352B013C016DE5BB
S1135A6071E2CE0187539F4F0E942136892BE1F0CA
S1135A70FF92EF920E94E4361F930F930E94E43644
S1135A800F900F900F900F90B6CF812C912C540152
S1135A906BE271E280E090E00E94FB350097D9F65A
S1135AA0412C512C3201DBCF62E671E2CE018753E7
S1135AB09F4F0E942136892B59F0A3019201C50101
S1135AC0B4010E945E2989E691E20E940C3793CFCB
S1135AD06DE671E2CE0187539F4F0E942136892BD8
S1135AE059F0A3019201C501B4010E94892989E6F4
S1135AF091E20E940C377FCF64E771E2CE018753B5
S1135B009F4F0E942136892B59F08AE791E20E9427
S1135B100C3782E390E00E94E3230E94E82B6BCFD2
S1135B2086E891E20E940C3766CFEF92FF920F93C2
S1135B30E12CF12C01E020E030E040E054E067E9A2
S1135B4071E28DEE9CE20E94DA1F0F91FF90EF90BC
S1135B5008955058BB27AA270E94C12D0C943B2FAF
S1135B600E942D2F38F00E94342F20F039F49F3FEB
S1135B7019F426F40C942A2F0EF4E095E7FB0C9408
S1135B80242FE92F0E944C2F58F3BA17620773078A
S1135B908407950720F079F4A6F50C946E2F0EF483
S1135BA0E0950B2EBA2FA02D0B01B90190010C0129
S1135BB0CA01A0011124FF27591B99F0593F50F441
S1135BC0503E68F11A16F040A22F232F342F442799
S1135BD0585FF3CF469537952795A795F040539591
S1135BE0C9F77EF41F16BA0B620B730B840BBAF061
S1135BF09150A1F0FF0FBB1F661F771F881FC2F7CC
S1135C000EC0BA0F621F731F841F48F487957795DF
S1135C106795B795F7959E3F08F0B0CF9395880F99
S1135C2008F09927EE0F9795879508950E94002F05
S1135C3008F481E008950E942F2E0C943B2F0E94BB
S1135C40342F58F00E942D2F40F029F45F3F29F0A3
S1135C500C94242F51110C946F2F0C942A2F0E9412
S1135C604C2F68F39923B1F3552391F3951B550BEE
S1135C70BB27AA2762177307840738F09F5F5F4F1B
S1135C80220F331F441FAA1FA9F335D00E2E3AF05A
S1135C90E0E832D091505040E695001CCAF72BD072
S1135CA0FE2F29D0660F771F881FBB1F26173707C3
S1135CB04807AB07B0E809F0BB0B802DBF01FF27F5
S1135CC093585F4F3AF09E3F510578F00C94242F7F
S1135CD00C946F2F5F3FE4F3983ED4F38695779549
S1135CE06795B795F7959F5FC9F7880F911D9695AE
